:100000000C9496080C94C3080C94C3080C94C30871
:100010000C94C3080C94C3080C94C3080C94C30834
:100020000C94C3080C94C3080C94C3080C94C30824
:100030000C94183A0C94C3080C94C3080C94C3088D
:100040000C94C3080C944F250C94C3080C94C3085B
:100050000C94C3080C94C3080C94C3080C94C308F4
:100060000C94C3080C94EF390C94C5390C94C30854
:100070000C94C3080C94C3080C94C3080C94C308D4
:100080000C94C3080C94C3080C94C3080C94C308C4
:100090000C94C3080C94C3080C94C3080C94C308B4
:1000A0000C94C3080C94C3080C94C3080C94C308A4
:1000B0000C94C3080C94C3080C94C3080C94C30894
:1000C0000C94C3080C94C3080C94C3080C94C30884
:1000D0000C94C3080C94C3080C94C3080C94C30874
:1000E0000C94C3080C949E1E0C9422220C945F1452
:1000F0000C9423230C94FD140C94B02E0C94B82271
:100100000C9418370C9426350C94A8230C94B51A2B
:100110000C949A2F0C949B2C0C9494290C94AE2044
:100120000C942F2C0C942E2E0C9475240C94443586
:100130000C94361E0C9461390C94B9390C94331F0D
:100140000C94E3110C94B2140C94E8330C94A22D8B
:100150000C942F1D0C944F190C940B190C942A20FD
:100160000C949F150C94C8100C9441160C942211F9
:100170000C94C3140C947E130C9426190C94A22690
:100180000C94AC1D0C9494150C948E340C94E61FB6
:100190000C942B300C9423280C94D71E0C94411CE7
:1001A0000C94E9260C94F0330C94C7150C9434226B
:1001B0000C9445120C94F9300C943E110C94842B41
:1001C0000C94251C0C945E390C9424350C944F2807
:1001D0000C9491110C94861A0C94AB230C94962CCD
:1001E0000C94D8200C94E6130C94961F0C9477165C
:1001F0000C94CB240C94AB210C946B1B0C94772A9D
:100200000C9463290C9406270C94A6390C94B92FEE
:100210000C94E8260C9461220C94CF2E0C944F2A57
:100220000C94B8330C9495280C94B1290C94971B1A
:100230000C94202A0C944D240C94592C0C94FD24DD
:100240000C94D4340C9417360C94BD200C942236A4
:100250000C94F1220C940B130C94761A0C94B2119A
:100260000C949C130C9423210C940E280C94091CC0
:100270000C94BE150C94EE2104000200000400044E
:10028000000004070404000004040400000000004F
:100290000000040000000000040000020200000052
:1002A000020407000407070400000000040400041F
:1002B000040000040002020404040404000004001A
:1002C00004040404040404000400020304000404FD
:1002D000000400040000040004000000000000000E
:1002E0000001020102D7024F280200010000009520
:1002F000280300010000005E3904000100000061D5
:1003000039050001000000A639060100018510C86A
:10031000100700010000003E1108010001D6022272
:1003200011090001000000E8260A02010180100EF8
:10033000280B030103D302E9260C020102D1022398
:10034000280D020002D702962C0E02000252100B5A
:10035000130F030003D302E61310020002D1027E42
:100360001311050005CC029C13120200025210204A
:100370002A13010001D602772A14020002D1024F8B
:100380002A150200025210942916040004C802A281
:100390002D17050005C3029B2C18010001D602EEA3
:1003A0002119080008BB0261221A030003B802B831
:1003B000221B0200025210AB211C020002D10234A7
:1003C000221D0400046D10F1221E010001D602223C
:1003D000221F080008B002D43420020002D1028E8D
:1003E000342104000354104F1922030002711076C7
:1003F0001A230300027110861A240400044E10F020
:100400003325010001D602E83326030003AD02B80C
:100410003327060006A702FD1428030003B80226AE
:100420001929050003A402AB232A040003A1025FDB
:10043000142B0300027110B2142C0400044E10C3DC
:10044000142D0300039E02BE152E0300037310C774
:10045000152F060006980241163006000692027714
:100460001631010001D602E31132030003D3024525
:10047000123302000252109F153403000271102241
:1004800036350400046D10183736030003B802B285
:100490001137010001D602CF2E38030003D302F931
:1004A00030390200025210B02E3A03000271109A45
:1004B0002F3B03000271102B303C0600069202B95C
:1004C0002F3D0300027110091C3E0300027110252C
:1004D0001C3F0800088A02411C4002000252109E84
:1004E0001E410500058502331F420400047A106B8B
:1004F0001B430200025210971B4404000382023681
:100500001E450500057D02D71E46010001D6028466
:100510002B4704000363102F2C480500057802596F
:100520002C490400044E10CB244A030003AD02FD05
:10053000244B0001000000B9394C00050000007890
:10054000DAA559796FDBC815FF2AB30282760BC78B
:10055000D041EA70913F7C659B6E9C78A3B829508E
:1005600014044D8EA441782D87F4D185BF7BDF31F3
:10057000172525BB680304E2CCBC37C73B7EEFF0F0
:100580006FA3FB5E1579F2205BADEA4A8FCE46DBA6
:100590002C3B137FFEE9F2F247119F46A76371AF30
:1005A000AABE5385C6D90F77E2C20C7F14D3D3E914
:1005B000FC743A9ECCC793693C3A19657559A655A7
:1005C0000E9BFC364A8BA2CED24E26B5CAB5C8EADF
:1005D000BEEADEBCCA4667CB1338B1EBE0A824CD37
:1005E000BE0A5885E9607D1E0504796E099A5AD3C2
:1005F0008FAADEBCEA45D31745D237CC30F70CBF03
:10060000F6B27D767BC205BE22752B7597742AFBE8
:10061000AA79D4B569A54BD525F654A12A78BF3956
:100620003F867714326D13BDEBBBBC7EAC4667537F
:100630007C5AB5515BB8D153318B627B846E54C206
:100640009FA3B378E2A9AAB4A8B789AADCEDE9DA36
:10065000A3B399DFC95CD952F03009E4B070A43477
:1006600029DBE16603192C22479CABADEAD222A913
:10067000FB6E8FE1212D7A89E35C6ED2BEE81237E2
:1006800051A64F49DEB769071640F79CF8C325E825
:10069000B3AB9BC15ED9E0F0E9DC11EFF2285A2C34
:1006A000C796B8D589395BDA8F3C725FB1FB9ABBCC
:1006B000AF85FB9245FAEC9406E298B943D434B383
:1006C00007C0270892D50AB686BF6033A06F668A36
:1006D000BC58CAA65F4DE371C8E814E71F5BC9BAEE
:1006E000514FB2D8935C9E7669A2D57FE0805D0FB2
:1006F000EED02528B1C0A2B484295505F75D784D08
:10070000378FE5116D64CF60657E0FA38B5DBFAF42
:100710001D9839504FE46F0C16B8BF313A56A71EDA
:1007200064B253DB1DBD70B60CE9C13CB7853C34E7
:1007300061E1D692EEB9912C9B68C0695DE218B375
:10074000594A4ABD7DF3EA2F8001B3D980F751752C
:100750003B104392599B078AE01DDD623575EAC95B
:100760009CE1E8ACF8EABE55EE3E9FAB2C19DA8866
:10077000C8CA3C39309B7170826C1AEF45384C8C7A
:1007800035E7AAB59F8C0444ECA9FA42CB60D3A903
:100790007F58B7936D5983833647251A2E7BA14620
:1007A000FE525D99F569EB6CA37D4A0EBC5B746EDD
:1007B000122DAF53A5E4A7ADFC2E2DCAC38B15F6A1
:1007C000CFE57D0FF65C37A3B3951DC12E5BB265F7
:1007D000D6CFC491B53205A06D73D9E279E8418CCA
:1007E00002534BF0D8AA4E1E50A0D13221409F2C6C
:1007F00065BB9555F69C205CC025608AA123D9D5A0
:10080000A53C00659D964DE80066EC207908DA70FD
:10081000750F57FC5C27E3566DB7B2C54768F40FF8
:1008200044A4D81F4E2101EE9476D209680A56BD21
:100830005100D2E0D209CB50646DC6623D196DC142
:100840009BE99E60FF664434E0D53CEC1BD4022853
:10085000F26464102FD1705E0216E8001DBF59CEFD
:10086000F3E91E19AAC0927975CC4188084B659DA1
:10087000ABCD7302BA767BB5925C4A98B80437C0A8
:1008800055668B0C1BEB70488F7349210D684C9992
:10089000D0E872FFF80814A672597570B8A8371B13
:1008A00038859CCA052438C7C2233DC34973310E1D
:1008B00056FA26F792E6A8BDEB836316B00DAB643B
:1008C0002F941E8FD6A081F11E03E9B2F72012AD3E
:1008D0001CC17ED8FD1F8DADF4C666D0D78F2075A4
:1008E000D802E34E665F83603D73AFDA8BD5EE06C8
:1008F0004D0DFEBC7F7E102E667683BD40F54DB15A
:10090000CCF718F6C512C796E000F2BF9118A14DBA
:1009100003C2AB0DBF2976573A0672DFD82310DD2C
:1009200040723C0070059FCB43C1B1F27A792C6FC5
:100930007167D461649DC496652FB03A72A72D305B
:100940008EB925462477D11F55C4E0650D7C4799A3
:1009500003FC2A8007F0148AE9A097D87C123FA3F1
:10096000C2FE79C000368A34E11BF6922EB8F7EC4D
:1009700080885E408980DB73901500D39C992AF9AA
:1009800064AE00B1CA39AF6A19CE264C64E5F13BBA
:10099000190648055E15047B4C8737DE66BDB3C675
:1009A00053A60BDC3D589D4576B5C3242C0C7F2601
:1009B00027032893416E062C73CFA2EB4DF798B610
:1009C00032E42D95AE6DB02B6BAD8E6501079B4665
:1009D0004BDEF4DBEF98E17B29C1F81E4EC7AB215B
:1009E000D571988EF1344E25128C0500710A13339F
:1009F000E778939527A00884D6CB314AB8901504A0
:100A000030E0802D4D2230103521B50372AE0A90B2
:100A100094B95186E8B2473C004C22A0EBC2044393
:100A200036756BA21B7B2F8D9D91C8A746814AC24C
:100A300058BA723BEDBD222482C0C8C87FCC8F0358
:100A40001F885E6CD28235E2F9D5657273FE4F4C19
:100A50004530A7BAB85B27B7EF3EAC11B1A00EBDC9
:100A6000BD989DDC5E4CE1FF64142C768FB4783524
:100A70003EB9BDC285CBF71F2F7F4EDE7EBAFE0585
:100A8000DD654CFF4E46379777409576A5DCA6D3BB
:100A9000783E06C2DB2F377CDA14B1F1D3F5E5F5E9
:100AA000BB7F5C275FDE7DB8FAF805D536C5C9F592
:100AB000F52798E45BC856A5059E750D675DE3595B
:100AC000B0FAEEFC7D72717E7785DBF051EBCFE7FB
:100AD0009FD7C9FAEE66FD0BACACAF7165FE82190B
:100AE000480F391165ED54119B62053FE90D63A074
:100AF000019BC6F1EDF97874F6AFF1C9F2DF70CD64
:100B00000BFC5EF2F7257E0308D0E00A0790BBD00D
:100B1000E01A07504FD2E02D0E22C3FF130DCC0672
:100B20007FC3416C36F83B0E1686E7673AC6F0BCC9
:100B3000A701F2BC0CA00152562AE627B3D90C6ECD
:100B40007C324A753C8E1639A5035D2163A8FCEF03
:100B5000E1C186CB3C8FF487CFC398A4D0045B4817
:100B60003D13951BA50B328E0D07532E20CF0BB4D2
:100B7000F16761D3B29C01F332AD445577028C5DCD
:100B8000206008C038063641362B1E770ABED9F6DB
:100B9000B468C07BE0244664CBDB6B49B1AD9D8873
:100BA0004DDD0A3083BFDAB1D2B89AD33C4D694EDD
:100BB0003880F54F1D0604A839B6702148E4D30EDD
:100BC000A953734DAEB038D334C41A49D1E4391F98
:100BD000E6598A1DB435DC5456C216218E1F8CEEA0
:100BE00092BB26A2495B303921DBB66E29D5B40B06
:100BF000AD8410A63BEA9DBC4DE1BDB9E86A414811
:100C000081B530393887BA771C60856D2EF85E075C
:100C1000C73986424B65DA3594E5FA3920C3ABA46F
:100C2000A58420C9C58E5D2CEB07696F23B01E46D5
:100C30008FF6CBAE7A76F532D73A07EB264974E7D2
:100C400063166089408082CD0ECB0F3B8B65AEC5AD
:100C50000D049B60DEE436D94E358671160D0940D1
:100C6000057DE3DFA439005A8A417613EC82C07710
:100C7000933EA19D2EAD40B964BD915AA75B29A0BA
:100C8000DA8158641506E2BF511AAD49437A98F7E4
:100C900005565BC08CA15B185424C3970F12358195
:100CA00051FBDB0CBBB4CDC9D80D35768E6E50FC34
:100CB00094CD08F86A3745FDC8E9D007B0F254F082
:100CC00073D0BD0855B0F9112E80DDF30236AAC2EB
:100CD0000555359C34708D404B15DED44FCF083D03
:100CE0009DF5376DBD05619670F514DFB681A80BD3
:100CF000B704614B745CCCC83F49F3283456F42CDC
:100D00003806450D6A404BC6AA65ED080EA4231EA1
:100D100055514030CA60BF41FB83C3ABE77412FA40
:100D20000E0726E76BF042D6215D002954D997764D
:100D3000CE3A07E8706D5B1C546CC166E4B7844121
:100D4000613F706D1CB9AB6BB149E975FC32AC2DDC
:100D50003F8726852203426AEA7060FE4CF2404ECD
:100D600088C35A52AD7C57E9BEC1582CD9A909494C
:100D700031B3F99276D92EAFB72CC51F3829A3E627
:100D80002A54217DF515364644E09E5D30AFFD02C4
:100D9000BC8A7D04204303D2A1074394877A52B3CF
:100DA0007E834E0D03565D1580710FB0417A5F58FA
:100DB000E872CF5F5121294CF2C1EDA8BDCAF54CB4
:100DC0007C04F08400788FF9C2063B17FA07EE4CDA
:100DD000503FD8E1A8E912E7DC8ED0587F5680104A
:100DE0006C32192C9341B9FC88A0854457A42DC6B8
:100DF0000E6C6D1DC93C505F6CDDD8763270CBBE79
:100E000083F91684A683D60CC626480F6693651C04
:100E100053A8338339C53A1ECC63523E0CE6F30522
:100E20007CCF5E5EA83E68001B24B7BD4D911A269C
:100E30008F1A11B3CAE45E29BC02A91FAD697D25D2
:100E400063EA2F9B9D711510EE76DF93EF11D74665
:100E50006D6AFC2D54D0DBC6741F331B571B0F5A11
:100E600021BCE3B1C26919F4E9071C6950F80A5AB8
:100E7000E1D7BC46BCE4FAC8A7A14BD71387E06909
:100E8000BA28F4406AB6E09CB52ACAFE01D5C27BF6
:100E90002FA9874AF5F4F76E6D38CC47E24F7F8D66
:100EA0008985ED7069703FD7B05A46BE4134D87914
:100EB000574305BB3D3C23EC3F01FBDCF75C12AB29
:100EC0007E9F16F3D82879E2DB2A01A9EBAFB0396F
:100ED0009C2229985C2010B19F3BB14C16E06BB668
:100EE000E2FF0336F61A3DEE6887E0FF32B2FED02D
:100EF000C85ECFC2069191B7BD5C9F65D493CF50B9
:100F000029F0029042D8895C6269EC71D7366D8E07
:100F10000B601926A87F4804D39023A8AF4206D0BF
:100F2000D4D1A2F840BD61E323D473342C427FC7EF
:100F30002C96542402A051B6BA9873AAACBD2DEBDE
:100F4000BE343FFA57EE100565E55ECDC96D3648F3
:100F5000B997F11EAE0DD570D4D97B8E4CA49BD51C
:100F6000D817A287F7C712943D7D505C7AE7C95223
:100F700057E91E6DCC86C0400523E5C5FC578A3E67
:100F80005CC4D2C1FC4112CAAF87F1E964723A86EF
:100F900063E3D7DB2893B3385AA5A397FF02FF0F6B
:100FA000A082630A000020002300260029002C00F4
:100FB0002F003200000100000301060109010F4764
:100FC00000440045008001354800440045002001F0
:100FD0000D88008000810080000E8A008000810062
:100FE00020000F8C008000810008000CB300B000CE
:100FF000B10080033EB400B000B10020032398008C
:10100000900091008000249A00900091002000251B
:101010009C009000910008003BA800A000A1008067
:10102000003CAA00A000A10020003DAC00A000A14F
:101030000008005B28012001210180005C2A0120BA
:1010400001210120005D2C01200121010800040084
:101050000000040404040704000002040002040267
:101060000400070402070400000204040204000054
:10107000040407040002040404000404000404013E
:101080000704000402000000000000000600020245
:101090006617044E10650A02521064400271106314
:1010A000400354106240036310611F0757106040F3
:1010B0000363105F0B025E105E400360105D40032F
:1010C00063105C1C0766105B400271105A14046DBB
:1010D0001059400271105810037310571104761004
:1010E0005611047A10550D027E10540B01851053D1
:1010F000400180105212048110510B0185105010D4
:101100000286104F150388100040028B104E0E020D
:101110008D104D09018F104C0600000028292A2B44
:101120002C2D2E2F505152535455565711241FBE5B
:10113000CFEFD1E2DEBFCDBF00E00CBF14BE0FB6D3
:10114000F894A89580916000886180936000109267
:1011500060000FBE12E0A0E0B2E0EAEAF5E700E0CE
:101160000BBF02C007900D92AA32B107D9F723E056
:10117000AAE2B2E001C01D92A739B207E1F70E94CE
:1011800080260C94D33A0C940000CF93DF93CDB714
:10119000DEB76A970FB6F894DEBF0FBECDBF0E94D0
:1011A0006D266B017C019E012F5F3F4F1901AE013F
:1011B000475F5F4F5D874C8780912602882309F443
:1011C0003DC50E946D26C61AD70AE80AF90AF894A6
:1011D00080912602882351F08FEF80932602789425
:1011E0000000F894809126028111F9CF78940E9432
:1011F0006D26A7019601260F371F481F591F2A8BFE
:101200003B8B4C8B5D8B81E08093260280914A0260
:10121000882309F440C010924A028FEF898362E26A
:1012200072E2C1010E946D118C01892BA1F1D801DC
:1012300056968C9182FFF3CF0E946D26F894F801A8
:1012400037892689422F4B7F468B78949F938F93C3
:101250007F936F931F923F9321701F922F938981E9
:101260001F928F934BEDC42E40E1D42EDF92CF928C
:101270000E94D3312DB73EB7245F3F4F0FB6F8948D
:101280003EBF0FBE2DBF62E272E2C1010E946D112E
:101290008C01892B61F680914B028823F9F0109222
:1012A0004B028FEF89836EE874E3C1010E946D11D8
:1012B000FC01892B99F0958D868D9813F4CFF894C5
:1012C000858D968D891709F497C578946EE874E337
:1012D000C1010E946D11FC01892B69F780914702C1
:1012E000882309F449C0109247028FEF8B87DE01F3
:1012F0001B962D0166E279E1C2010E946D115C012D
:10130000892BD1F1F501818D80FFF4CFF8946480B1
:10131000758086809780818D8E7F818F7894808D77
:10132000813009F4F5C308F4D6C3823009F496C3BA
:10133000833001F7CB8419821A82910142E061E087
:10134000F501848995890E947C1909811A811027E9
:1013500001271027F02FF670EF2E20E030E0B401C7
:10136000A301C5010E943F1566E279E1C2010E9416
:101370006D115C01892B31F6809146028823B1F111
:10138000109246028FEF8B879E01255F3F4F290108
:10139000B2E0DB2E1DE2E12E08E0F02E6FE975E1F0
:1013A000C2010E946D118C01892B01F1D801529666
:1013B0008C9182FFF3CF80FF82C0C8010E94473525
:1013C000F801D28AE982FA82910142E060E08485E4
:1013D00095850E947C19C8010E94BE166FE975E1CF
:1013E000C2010E946D118C01892B01F78091450289
:1013F000882309F469C0109245028FEF8B879E0104
:10140000255F3F4F290166246A94ADE17A2E03E2FD
:1014100062EB71E1C2010E946D115C01892B09F43C
:1014200053C0D50150968C9182FFF2CFF894F5010C
:1014300044815581668177811489108A148A789451
:1014400080859185A285B3856A017B01C81AD90A76
:10145000EA0AFB0ACE86DF86E88AF98AD5011123DB
:1014600089F052968C91F501E80FF11D658A168A74
:10147000178A8D5FF501828B8E32D8F41150D50119
:101480001111EFCF51968C91882309F484C28130D9
:1014900009F46BC3823009F461C4D50152968C9172
:1014A00090E08E970CF4B4CF6B85C5010E94F236A4
:1014B000AECF6B85C5010E94F2361150E0CF6B852F
:1014C000C8010E9403176ACF80915102882309F452
:1014D00062C0109251028FEF8B87FE013B962F0165
:1014E00012E0A12E03E2E02E8AE6F82E94E0B92E57
:1014F00020E4C22E38E0D32E60EB7EE2C2010E94CF
:101500006D118C01892B09F446C0D80152968C913B
:1015100082FFF2CF80FF35C1C8010E944735F80134
:10152000A28AE9821A820484F585E02DA10162E095
:1015300080810E947818F982BA82D8011C96ED91B8
:10154000FC911D97A10162E080810E947818F982C8
:10155000CA82D8011C96ED91FC911D97A10162E011
:1015600080810E947818E982DA82D8011C96ED9178
:10157000FC911D97A10162E080810E947818C8014A
:101580000E944A3060EB7EE2C2010E946D118C0124
:10159000892B09F0BACF809148028823E9F0109294
:1015A00048028FEF89830FE910E167E97BE1C10110
:1015B0000E946D11009781F0FC01208D2F3FA9F74B
:1015C000F8942685211105C3789467E97BE1C10170
:1015D0000E946D11009781F7809149028823D9F10B
:1015E000109249028FEF89830AE910E167ED7EE1ED
:1015F000C1010E946D11009771F1DC011E962C91C2
:101600001E9723FFF3CFF894FC012685277F2687BA
:1016100078949C01265E3F4F3F932F9350968C9178
:101620008695869586951F928F9389811F928F93B9
:101630001F930F930E94D331EDB7FEB738960FB6C4
:10164000F894FEBF0FBEEDBF67ED7EE1C1010E94C1
:101650006D11009791F680914E02882309F446C0DF
:1016600010924E028FEF898300E910E16DEF74E272
:10167000C1010E946D11FC01892BC1F1848D80FF95
:10168000F5CFF89494812581368147815489658905
:101690007689A789B08DF18CE28CD38C848D8E7F76
:1016A000848F7894DF92EF92FF92BF93AF937F93F2
:1016B0006F935F934F933F932F939F9389811F92D3
:1016C0008F931F930F930E94D3312DB73EB7205FA6
:1016D0003F4F0FB6F8943EBF0FBE2DBF6DEF74E2C3
:1016E000C1010E946D11FC01892B41F6A8958091E2
:1016F0007302882329F080E48093600010927302C3
:1017000010913403112309F472C000912A0200FDE4
:1017100012C0153008F46BC0B0907402CB2C8BEF64
:101720008B0D8C3308F4B1C2EEE7CE1609F422C457
:10173000016000932A02412F50E06EE770E084E7D9
:1017400092E00E94A43A009739F00E7F00932A029B
:101750008457924011E0180F01FD0CC0902F926049
:1017600090932A028AE395E09F938F930E94D3314E
:101770000F900F90B12EDD24DA9480E0EB2CF12C49
:101780001DC06B85C8010E946930B6CE90E0402F25
:1017900050E0481B590BB701680F791F6C587D4FFB
:1017A0008C589D4F0E94BA3A10922602802F9FB704
:1017B000F89420913403121761F09FBF1091340305
:1017C000012F0B1919F79FB7F894209134031213C6
:1017D000F4CF009334039FBFF1E0DF1208C08AE327
:1017E00095E09F938F930E94D3310F900F900E94AA
:1017F0006D266B017C012A893B894C895D89621BBE
:10180000730B840B950B8090330290903402A09060
:101810003502B09036023FEF831A930AA30AB30A47
:101820008092330290923402A0923502B092360236
:1018300040902F025090300260903102709032023E
:10184000460E571E681E791E40922F02509230029B
:1018500060923102709232026115710541E0840795
:10186000910508F0F0C19B01AC010E94233ADC0114
:10187000CB0181509F4FAF4FBF4F892F9A2FAB2F76
:10188000BB2740912B0250912C0260912D02709148
:101890002E02840F951FA61FB71F84179507A60752
:1018A000B70718F48FEF9FEFDC0180932B02909322
:1018B0002C02A0932D02B0932E0240916F02509102
:1018C000700260917102709172025C546B437B4FA5
:1018D0002F2DC416D506E606270B27FD6DCCBF932A
:1018E000AF939F938F937F926F925F924F92BF922D
:1018F000AF929F928F9283E091E19F938F930E948A
:10190000D3316DB77EB7625F7F4F0FB6F8947EBF5D
:101910000FBE6DBF80916F0290917002A091710215
:10192000B0917202C816D906EA06FB0698F48091B7
:101930006B0290916C02A0916D02B0916E020196C3
:10194000A11DB11D80936B0290936C02A0936D0258
:10195000B0936E02C0926F02D0927002E092710258
:10196000F092720210922B0210922C0210922D0211
:1019700010922E0210922F02109230021092310219
:1019800010923202109233021092340210923502F9
:101990001092360211CC82E389831A820E946D264E
:1019A0006B017C01910142E061E0F5018485958540
:1019B0000E947C190E946D26DC01CB018C199D09C7
:1019C000AE09BF0981329340A105B10508F0F3C00B
:1019D000998197FD2AC12E853F8548895989C21A68
:1019E000D30AE40AF50AD50153968C918823C1F0F5
:1019F0002FEF280F41E050E002C0440F551F2A95F9
:101A0000E2F7052E000C660B770BC40ED51EE61E02
:101A1000F71E04C0F694E794D794C7948A95D2F73A
:101A2000BFEFCB16D104E104F10408F05CC12A81B8
:101A300030E0220F331F892F90E0982F8827990FCD
:101A4000822B932BF5012289E20FF11DC58A868B2B
:101A5000978B2D5FD50152962C931FCDCB8481E0BF
:101A600089831A821B821C82910143E061E0848990
:101A700095890E947C1969817A818B819C810E9461
:101A8000333ABB27A92F982F872F9C01AD014427FC
:101A900055272E873F87488B598B37E039831A8229
:101AA000910142E061E0D50154968D919C9155974A
:101AB0000E947C198A81982F9C7F8E858170E92EE7
:101AC000E82A0E851F8528893989B401A301C5013B
:101AD0000E943F150FCCCB8419821A821B821C8274
:101AE000910144E061E0848995890E947C196981B3
:101AF0007A818B819C810E94333AB62FB770EB2E8E
:101B00008B019C01B401A301C5010E943F15F2CBDA
:101B1000CB84CE863CE0D32ED9821A821B821C82D3
:101B2000910144E061E0848995890E947C19698172
:101B30007A818B819C810E94333A6B017C01BFE0EA
:101B4000B9831A82910142E061E0F50184899589A7
:101B50000E947C19970186013327CE84EA80B40164
:101B6000A301C5010E943F15C5CB8FE789838EEF86
:101B70008A830E946D266E8B7F8B888F998F91014F
:101B800042E060E0F501848595850E947C190E9401
:101B90006D266B017C01DC01CB012E893F89488DCC
:101BA000598D821B930BA40BB50B81329340A10579
:101BB000B10508F4A5C0D50152968C91F501E80F46
:101BC000F11D658A92E0968B178A8D5FF501828BF5
:101BD00064CCFC01318D308F7894AC01415F5F4F54
:101BE0005F934F931F922F9387891F928F938981C1
:101BF0001F928F931F930F930E94D331EDB7FEB7BF
:101C00003A960FB6F894FEBF0FBEEDBFCECC2C8532
:101C10003D85E217F30709F0E0C0809590E02A8542
:101C200030E08217930709F408C1D50152968C91D0
:101C3000F501E80FF11D658A93E0C5CFCA8ADB8AFA
:101C4000EC8AFD8AE0CA6115710550E185079105AE
:101C500008F028CE8B019C0101501F4F2F4F3F4FA2
:101C60005527432F322F212F0E94233ADC01CB012D
:101C700040912B0250912C0260912D0270912E0206
:101C8000840F951FA61FB71F08CED09075028D2D0B
:101C9000807F803109F048CD1B1508F4A8CD8B2D2D
:101CA00090E0FC01ED58FD4F20812E3709F03CCD2E
:101CB000AC014F585D4F4A01FC01EE58FD4F908139
:101CC000DA018C91292F30E07901F82A6DEF6B0D44
:101CD00084E792E00E948326E816F90609F44CC1D5
:101CE000C090740221CDF5018289E80FF11D658A4B
:101CF00091E0968B178A8D5FD50152968C93CDCB50
:101D000080EC89831A82910142E061E0D5011C9642
:101D10008D919C911D970E947C1949812A81942F55
:101D20009227892F82958F709827892F869586957F
:101D30008927982F9695892780FD93C046FFA1C0DB
:101D4000F5018289E80FF11D658A75E0C72EC68A04
:101D5000178A8D5FD50152968C939FCBD5011C9627
:101D6000ED91FC911D9714818280938040E0B40135
:101D7000812F0E94FC180E946D266B017C01B0E14E
:101D8000CB0ED11CE11CF11C0E946D262F2DC61616
:101D9000D706E806290B27FFF7CFF89441E0B401F6
:101DA000812F0E94FC180E946D266B017C017894A3
:101DB000F1012AE011922A95E9F734E839830A8380
:101DC00091014AE061E0D5011C968D919C911D978F
:101DD0000E947C19FE01339685E09191892728E0C5
:101DE00030E005C0880F2150310909F410CF87FF7A
:101DF000F9CF880F8725F7CF548965899089218984
:101E0000328943898F5F858F78946F935F934F9367
:101E10003F932F939F9389811F928F9346ED50E1BB
:101E20005F934F930E94D3318DB79EB70A960FB63A
:101E3000F8949EBF0FBE8DBF36CA898584FF18C037
:101E40008B8187FD65C0D50152968C91F501E80F15
:101E5000F11D658AB4E0B68B178A8D5FF501828B20
:101E60001CCBF5018289E80FF11D658A93E041CF13
:101E7000D50152968C91F501E80FF11D658AB5E008
:101E8000EACF6E857F8588899989C61AD70AE80ABC
:101E9000F90AD50153963C913323C9F08FEF830F94
:101EA000E1E0F0E002C0EE0FFF1F8A95E2F7CF01FC
:101EB000092E000CAA0BBB0BC80ED91EEA1EFB1E76
:101EC00004C0F694E794D794C7943A95D2F7FFEFFD
:101ED000CF16D104E104F10408F043C0842F90E050
:101EE000AC01542F4427550F550FF4E02F9FC0012C
:101EF0001124842B952BD50152962C91F501E20FDC
:101F0000F11DC58A868B978B2D5FF501228BC5CA83
:101F10002E853F8548895989C21AD30AE40AF50AF1
:101F200031E5C31635E5D306E104F104D0F42C8184
:101F300030E0220F331F90E0982F8827990F822BD3
:101F4000932BD50152963C91F501E30FF11D2F81A2
:101F500026952F73258B868B978B3D5FF501328BF2
:101F60009CCAD50152968C91F501E80FF11D658A46
:101F700091E029CE11E0FECB802F8D7F80932A0245
:101F800080910802D812FFC081E08D0D8F708061B2
:101F900080930802B6E78B16B2E09B0609F008F4BE
:101FA000BEC0E6E7F2E0BA8ECDB6DEB68F010F5FB7
:101FB0001F4F2081222309F4E8C0E9E3F5E0849172
:101FC000281708F0E2C030E0220F331F220F331F22
:101FD000220F331FF901E652FD4FE491EDB6FEB634
:101FE00044E0E49FE018F10811240FB6F894FEBE17
:101FF0000FBEEDBE8DB79EB70196F901E452FD4FBD
:102000004491F901E352FD4F65917491FB01640F16
:10201000711DAC01DF86CE869F8B8E8BE617F7078E
:1020200009F482C08016910608F46EC0A491A53010
:1020300028F1A73009F068C02801BFEF4B1A5B0AEE
:10204000D801AC9082010A0D111D8016910608F48A
:102050005BC0B12CC12CD12CDA01AD92BD92CD92D6
:10206000DC921397612C712C14964D925D926D92B7
:102070007C921797485F5F4F3196D0CF7A0184E00A
:10208000E80EF11C68019FEFC91AD90AD8011C910A
:10209000912F9F77492E512C612C712C012F0076A6
:1020A0000036A9F117FF3EC086010F5F1F4FD80110
:1020B00011978C91440C551C661C771C440C551CC4
:1020C000661C771C440C551C661C771C440C551C64
:1020D000661C771C440C551C661C771C440C551C54
:1020E000661C771C440C551C661C771C982F9F7728
:1020F000492A87FDDACFDA014D925D926D927C928A
:102100001397A70131968ACF87E00E945739B0EE26
:102110004B2A55245A94652C762CC4CFBA8CDD24D6
:10212000D3942BCB8601E7CFCE84DF848E899F8921
:1021300040912702442331F0F901E552FD4FE4912B
:10214000E0FF11C021523D4FF90125913491F90171
:1021500019950FB6F894DEBE0FBECDBE0815190551
:10216000E8F6F80121CF809128021F928F93E2E1D7
:10217000F1E1FF93EF930E94D3310FB6F894DEBEE6
:102180000FBECDBEEBCF1B2DEDCA85E00E945739A7
:102190000F931F93CF93DF938C0180913F02909117
:1021A0004002892B09F04BC060913E0270E0623022
:1021B00071052CF482E080933E0262E070E0E091D1
:1021C0003A02F0913B024DB75EB741505F4F442752
:1021D0005A959F01C0E0D0E0C901860F971F4817AC
:1021E000590730F121969C01C115A4E0DA07A1F747
:1021F0008E1B9F0B0E94B031D0934002C0933F02D0
:1022000090933D0280933C020E94EB28F80180816C
:102210009181A281B3818093410290934202A09365
:102220004302B0934402DF91CF911F910F91089523
:10223000209711F0C901DCCF80E10E9457398DE071
:102240000E945739CF932091380230913902232BC5
:1022500091F4FC01C0818C2F90E0880F991F880FAA
:10226000991F0E94B0319093390280933802C09335
:102270003702CF9108958AE00E94573980913F023A
:10228000909140029F938F9321E03091270231116A
:1022900001C020E01F922F93209144022F932091A0
:1022A00043022F93209142022F93209141022F93BA
:1022B00021E0892B09F420E01F922F9384EF90E115
:1022C0009F938F930E94D3318DB79EB70C960FB614
:1022D000F8949EBF0FBE8DBF0895CF93DF93EC019E
:1022E000988140913702A0913802B09139020BC019
:1022F000FD0184E0989FE00DF11D112420813181C2
:102300002617370741F09F5F941790F380E090E025
:10231000DF91CF910895988382819381DF91CF914E
:102320000895FC01808982FD19C08460808B109221
:10233000260281E080934502448155816681778140
:1023400080859185A285B385840F951FA61FB71F31
:1023500084839583A683B78381E0089584898F5F02
:10236000848BE5CFFF920F931F93CF93DF93EC0104
:10237000F88483E08F1508F145E450E062EB71E1E9
:1023800088810E94A4288C0181E991E1F80193835E
:10239000828368EB73E38C810E94D328F8019587D0
:1023A0008487FC01858180FF0BC0F801F18ADF91F1
:1023B000CF911F910F91FF90089582E20E945739AB
:1023C00081E20E9457398F929F92AF92BF92EF9213
:1023D000FF920F931F93CF93DF931F921F92CDB75E
:1023E000DEB77C016FE975E1FC0180810E94D32892
:1023F0008C0189EB89831A820E946D264B015C0156
:102400009E012F5F3F4F42E061E0F8018485958592
:102410000E947C190E946D26F80121892F93208942
:102420002F932A811F922F9323891F922F93278501
:102430002F9326852F93DC01CB0188199909AA09CE
:10244000BB09BF93AF939F938F93BF92AF929F921D
:102450008F92F70180811F928F9382EC90E19F937E
:102460008F930E94D3310FB6F894DEBF0FBECDBF5D
:102470000F900F90DF91CF911F910F91FF90EF90F0
:10248000BF90AF909F908F9008954F925F926F9200
:102490007F928F929F92AF92BF92DF92EF92FF92C4
:1024A0000F931F93CF93DF931F921F92CDB7DEB789
:1024B0007C01FC01D0806FE975E18D2D0E94D3284D
:1024C0008C01F70180859185A285B385892B8A2BA4
:1024D0008B2B99F1C8010E944735F70184819581C2
:1024E000A681B781F80184839583A683B783F7011A
:1024F00080859185A285B385F80180879187A28721
:10250000B38781E0828B118A108A17861686138A18
:10251000C8010E9499350F900F90DF91CF911F91C4
:102520000F91FF90EF90DF90BF90AF909F908F90B2
:102530007F906F905F904F900895C8010E9447353B
:10254000F801128A8DE289831A820E946D264B015E
:102550005C019E012F5F3F4F42E060E0F8018485FF
:1025600095850E947C190E946D262B013C0181E219
:10257000F82E99EBE92E03C0FA94FF20C1F0E9820E
:102580001A829E012F5F3F4F42E061E0F80184858F
:1025900095850E947C198A818F7749F0813260F796
:1025A0006D2DC8010E940317FA94F110E8CFF801CD
:1025B0008389882331F06D2DC8010E94DD16F80152
:1025C0008389F80191899F9390899F939A811F92A3
:1025D0009F931F928F9387858F9386858F93D301C7
:1025E000C20188199909AA09BB09BF93AF939F93A8
:1025F0008F93BF92AF929F928F921F92DF9282EC45
:1026000090E19F938F930E94D3310FB6F894DEBF71
:102610000FBECDBF80CF8F929F92AF92BF92FF929D
:102620000F931F93CF93DF938C016CE973E1FC014F
:1026300080810E94D328EC010E9447358F8D98A19C
:10264000892B09F058C0F80104811BA1FF24F394E1
:10265000002339F16C897D898E894F2D0E94FC18E9
:1026600021E001111CC014FB882780F991E0892723
:10267000281741F08F89988DA98DBA8D892B8A2BC7
:102680008B2B89F410711F291BA3DF91CF911F9110
:102690000F91FF90BF90AF909F908F90089520E092
:1026A000E2CFF12CD7CF0E946D268F88988CA98C11
:1026B000BA8CDC01CB01880D991DAA1DBB1D888B2E
:1026C000998BAA8BBB8B8C839D83AE83BF8386E063
:1026D00097E29B838A83107114601F291BA3CE018C
:1026E000DF91CF911F910F91FF90BF90AF909F907E
:1026F0008F900C94993582E10E945739CF93DF93E4
:10270000EC016CE973E188810E94D328F894FC0104
:10271000278D30A1232B69F44C815D816E817F81EF
:10272000FC01438F548F658F768F7894DF91CF9122
:10273000089584E10E945739CF92DF92EF92CF93B0
:10274000DF93EC0161E088859985AA85BB85892B9B
:102750008A2B8B2B09F460E08C810E941B256B0176
:10276000E82E44E250E06CE973E188810E94A428DD
:10277000FC01C48AD58AE68A21E0488559856A85A4
:102780007B85452B462B472B09F420E04C855D8546
:102790006E857F85452B462B472BB1F430E0232BEC
:1027A000FC0123A3488959896A897B89478B508F0B
:1027B000618F728F6AE070E04F96DF91CF91EF905A
:1027C000DF90CF900C94352930E1E9CFCF92DF92A2
:1027D000EF92FF920F931F93CF93DF938C016CE9DD
:1027E00073E1DC018C910E94D328EC010E944F29F7
:1027F000FC01D8011496CD90DD90ED90FC901797D8
:10280000C282D382E482F58218964D915D916D91DA
:102810007C911B974683578360877187F894118258
:1028200010828F8D98A1892B81F0A9A1BAA1ED9377
:10283000FC93FAA3E9A37894DF91CF911F910F91B4
:10284000FF90EF90DF90CF900895FAA3E9A3F8A34B
:10285000EF8F8BA182FD25C0C88AD98AEA8AFB8ABC
:10286000982F94609BA381FD10C0CE010E94473534
:10287000CC82DD82EE82FF8286E097E29B838A83B0
:10288000CE010E9499357894D7CF4C815D816E81BD
:102890007F81872F4C155D056E058F0987FFE5CF7A
:1028A000F2CF488959896A897B89972F4C155D0534
:1028B0006E059F0997FFD0CF83E10E945739AF92F1
:1028C000BF92CF92DF92EF92FF920F931F93CF931D
:1028D000DF93CDB7DEB77C01ADB6BEB6FC01C080DC
:1028E00063EC74E18C2D0E94D328F701648140854C
:1028F0005185D4842DB73EB72D1931090FB6F89400
:102900003EBF0FBE2DBFEDB7FEB731967F018F01E1
:102910002D2DFC0180810E94EE17FF92EF921F92F5
:10292000DF921F92CF9287EC90E19F938F930E944A
:10293000D3312DB73EB7285F3F4F0FB6F8943EBF57
:102940000FBE2DBF0FB6F894BEBE0FBEADBEDF9159
:10295000CF911F910F91FF90EF90DF90CF90BF909C
:10296000AF900895CF93DF93EC0163EC74E188811D
:102970000E94D328488559856C81FC018081DF91B4
:10298000CF910C947818EF92FF921F93CF93DF931F
:10299000EC018C85182F1F7741E050E063EC74E167
:1029A00088810E94A4287C018C819D81AE81BF8199
:1029B000892B8A2B8B2BF1F48091BC0082FD10C0F7
:1029C00061E089E10E941B2561E088E10E941B25EE
:1029D0001092B90088E48093B80084E08093BC0032
:1029E000812F880FF7018083DF91CF911F91FF9096
:1029F000EF90089580E30E9457390F931F93CF9370
:102A0000DF938C0166E279E1FC0180810E94D3288A
:102A1000EC010E944735F80184819581A681B78138
:102A20008C839D83AE83BF8380859185A285B3858A
:102A300088879987AA87BB87892B8A2B8B2B29F4B8
:102A4000DF91CF911F910F91089584859585A6857B
:102A5000B7858C879D87AE87BF8780899189A2893A
:102A6000B389888B998BAA8BBB8B84898E8B1F8AA9
:102A7000CE01DF91CF911F910F910C9499358F92D8
:102A80009F92AF92BF92CF92EF920F931F93CF93EB
:102A9000DF93EC01480159011F92EF92BF92AF9270
:102AA0009F920F937F936F935F934F931F92CF9259
:102AB0008CEC90E19F938F930E94D3318DB79EB79A
:102AC0000E960FB6F8949EBF0FBE8DBFE11009C0E1
:102AD0008C859D85AE85BF8588169906AA06BB069E
:102AE00088F48F898F5F8F8B9E898917B0F4DF916F
:102AF000CF911F910F91EF90CF90BF90AF909F908B
:102B00008F90089588899989AA89BB898815990524
:102B1000AA05BB0530F31F8AEACF809127028111F5
:102B2000FACF8CE10E945739FC0192899460928B14
:102B30001092260281E08093460280E008950F9370
:102B40001F93CF93DF938C0146E450E06FE975E16A
:102B5000FC0180810E94A428EC0184E995E19B831B
:102B60008A8368EB73E3F80184810E94D3289D87F0
:102B70008C87DF91CF911F910F910895FC014481C3
:102B8000558166817781208580810C94B52AEF92EA
:102B9000FF920F931F93CF93DF937C0161E476E163
:102BA000DC018C910E94D3288C010E944F29EC01FA
:102BB000F70184819581A681B7818A839B83AC8349
:102BC000BD83808591859F838E83F89419821882B6
:102BD000D80151968D919C915297892BB9F15396BA
:102BE000ED91FC915497D183C0835496DC93CE939E
:102BF000539780E090E07894892B39F4DF91CF915E
:102C00001F910F91FF90EF900895C8010E944735E2
:102C1000D80112968D919C911397885A9342F1F0A6
:102C20008A819B81AC81BD8123E233E2F801338349
:102C3000228384839583A683B783C801DF91CF91D4
:102C40001F910F91FF90EF900C949935F801D48B60
:102C5000C38BD28BC18B81E090E0CDCF8A819B81E9
:102C6000AC81BD81F8014481558166817781272F30
:102C7000481759076A072B0B27FFD6CF8FE10E9411
:102C80005739CF92DF92EF92CF93DF93EC014885D3
:102C900059856A857B852C858C810E94B52A6B01BC
:102CA000E82E45E150E061E476E188810E94A428A5
:102CB000FC01C086D186E28688899989908B8787B6
:102CC0008C899D89AE89BF8983879487A587B687BC
:102CD00083E293E29383828368E070E0CF014196C0
:102CE000DF91CF91EF90DF90CF900C943529DF9258
:102CF000EF92FF920F931F93CF93DF93EC01D8884D
:102D000083E08D15B0F168EB73E388810E94D328CE
:102D10007C018AE090E00E94B0318C0161E08C81FE
:102D20000E94C318F80160837183828360E0888504
:102D30000E941B25F80163837483858360E08C8582
:102D40000E941B25F801668377838087D186F7016F
:102D50008581982F967081F4F7011183008382603A
:102D60008583DF91CF911F910F91FF90EF90DF90BE
:102D700008958BE10E9457390E9479190F931F9390
:102D8000CF93DF93EC01F8940E946D260885198596
:102D90002A853B85DC01CB01800F911FA21FB31F49
:102DA0008C839D83AE83BF83CE010E949935789436
:102DB000DF91CF911F910F910895CF93DF93EC0195
:102DC00044969F938F938B891F928F938F858F93B8
:102DD0008E858F931F926F938DEB90E19F938F93CE
:102DE0000E94D3311B8A8E859F8501969F878E878F
:102DF0008DB79EB70A960FB6F8949EBF0FBE8DBFD3
:102E0000DF91CF910895DF92EF92FF920F931F937E
:102E1000CF93DF93CDB7DEB729970FB6F894DEBF17
:102E20000FBECDBF8C01F62E9E012F5F3F4F89E074
:102E3000F90111928A95E9F782EF898349E061E00F
:102E4000F801848595850E947C19F801838990E0BA
:102E50009C012C5E3F4FE20FF31F3B81232F207F0D
:102E600021F1203F11F12FEF24832383228321833B
:102E7000F801E80FF91F248BF80183898B5F838B9E
:102E80008E3208F05EC0F801828981FD4FC029961C
:102E90000FB6F894DEBF0FBECDBFDF91CF911F916B
:102EA0000F91FF90EF90DF9008954D81242F207FA8
:102EB000C9F52F81522F507F11F0503FA1F6588550
:102EC000503989F659855F77E52E50E25E1558F244
:102ED000D801A80FB91F5A8154965C938C818183C5
:102EE0008E818283822F90E03F71BC01660F771F35
:102EF00062957295707F7627607F7627362B3383B5
:102F0000880F991F880F991F80764F71482B448333
:102F1000F80183898B5F838B4EEFD42EDE0C8E32CB
:102F2000B8F012C0203F09F09ECFC3CFC8010E9465
:102F30004735F80182898B7F828BC8010E94BE16BB
:102F4000A6CF8EEFD82EE12C6F2DC8010E94DD1682
:102F5000FEE1FE1530F4F801808991890196918B8C
:102F6000808BFEE1FD1508F48ECF1092260281E0E1
:102F7000809346028CCFCF92DF92EF92FF926B014B
:102F80007C0109C00E946D26292F6C157D058E05D8
:102F90002F0927FF09C08091BC0087FFF3CFFF9066
:102FA000EF90DF90CF9008958FE20E94573924EA86
:102FB0002093BC000E94BB178091B90090E0A0E074
:102FC000B0E080319105A105B10521F00897A10578
:102FD000B10509F408958EE20E9457397F928F92CD
:102FE0009F92AF92BF92CF92DF92EF92FF920F9398
:102FF0001F93CF93DF93782EC62F942EB52E822E5B
:103000000E946D266B017C0120E8C20E28E3D21ECF
:1030100021E0E21EF11CC701B6010E94D717709291
:10302000BB0084E88093BC00C701B6010E94BB17B7
:10303000AA24AA94AC0ECC23B1F0C92DDB2DB12C5F
:103040008FEFA81AB80AAC0EBD1E94E8992E89918C
:103050008093BB009092BC00C701B6010E94BB17D1
:10306000AC16BD06A1F7C701B6010E94D717872D80
:1030700081608093BB0084E88093BC00C701B601E7
:103080000E94BB17DFEFD80D882009F15801CD2F22
:1030900084EC982ECC2369F09092BC00C701B60155
:1030A0000E94BB178091BB00F50181935F01C15065
:1030B00099F7F801ED0FF11DEF0184E88093BC0052
:1030C000C701B6010E94BB178091BB00888384E9C9
:1030D0008093BC00DF91CF911F910F91FF90EF90F3
:1030E000DF90CF90BF90AF909F908F907F9008958A
:1030F000BF92CF92DF92EF92FF920F931F93CF93E5
:10310000DF93D82FC62FB42E152F0E946D266B018A
:103110007C0120E8C20E28E3D21E21E0E21EF11C51
:10312000C701B6010E94D717D093BB0084E88093F3
:10313000BC00C701B6010E94BB170FEF0C0FCC23D8
:10314000A9F0CB2DD12F10E00F5F1F4F0C0F1D1FCB
:1031500084E8B82E89918093BB00B092BC00C7016F
:10316000B6010E94BB17C017D107A1F784E980936D
:10317000BC00DF91CF911F910F91FF90EF90DF90F6
:10318000CF90BF9008958036A0F567FD32C0E82F3C
:10319000E695E695E695F0E0EE0FFF1FEA55F04F55
:1031A000A591B491109729F1877021E030E0A90131
:1031B00002C0440F551F8A95E2F7CA014FB7F89431
:1031C00012963C911297662381F0382B282F209578
:1031D00012963C93129711963C91119723231196C6
:1031E0002C9311974FBFBD010895282F20953223AE
:1031F000EFCF8AE20E945739FB012FB7F8949281F2
:10320000411105C08095892382832FBF0895892BA2
:1032100082832FBF0895FC011092260281E08093E3
:103220004702818D8160818F4481558166817781DC
:1032300080859185A285B385840F951FA61FB71F32
:1032400084839583A683B78381E00895FF920F93CB
:103250001F93CF93DF93EC01F88483E08F15E0F0A8
:103260004AE150E066E279E188810E94A4288C015D
:103270008BE099E1F8019383828368EB73E38C819F
:103280000E94D328F801958B848BF08EDF91CF912B
:103290001F910F91FF9008958DE10E945739CF92B1
:1032A000DF92FF920F931F93CF93DF93EC0168EBB4
:1032B00073E38C810E94D3286C01F8840F2D10E0F9
:1032C000A8014D5F5F4F6FE479E188810E94A428D7
:1032D000FC01D182C082F2826C857D85A8010396B3
:1032E000DF91CF911F910F91FF90DF90CF900C94C1
:1032F000B13A8BE10E9457396F927F928F929F92E1
:10330000AF92BF92CF92DF92EF92FF920F931F93F3
:10331000CF93DF934C01E62E142F6901DC01159643
:103320007C901597872D867009F451C071FC39C0C7
:10333000F401908181819CBD8DBDF72DF1706F2EC0
:1033400070FCC8C0EE2009F49CC08FEF810F1123E0
:1033500051F0F60190819EBD0DB407FEFDCF9EB5E4
:1033600091938150B8F7662091F1072D0695069547
:103370000695402F40954170D40112966D917D9134
:103380008C91DF91CF911F910F91FF90EF90DF9083
:10339000CF90BF90AF909F908F907F906F900C9444
:1033A000FC18ED91FC9141854270668177818085A2
:1033B0000E94FC18B72DB1706B2E70FC17C0D401A1
:1033C000CD91DC91AA24AA94A10E111126C0DF91FF
:1033D000CF911F910F91FF90EF90DF90CF90BF9012
:1033E000AF909F908F907F906F900895072D0695D6
:1033F00006950695402F4170F401628173818481A6
:103400000E94FC18D401CD91DC91AA24AA94A10EAB
:10341000112309F4AECF66246394B12C8FEFA81A60
:10342000B80AAC0CBD1CD601FC9008E010E0898500
:1034300080FF35C0EE81FF81888580834F2D4078E5
:103440006B817C818D810E94FC18FF0CEE81FF81D5
:1034500088858083110FE881F98190818A81892391
:1034600091E009F490E0192B015009F7EE2011F0DA
:10347000F6011083FFEFCF1ADF0AAC14BD0499F6F2
:1034800072CFF6019601210F311D2E173F0709F467
:103490006ACF81918EBD0DB407FEFDCFF6CF4F2DC3
:1034A00040786B817C818D810E94FC18FF0CEE813D
:1034B000FF8188858083110FE881F98190818A815D
:1034C000892391E009F490E0192BEE81FF81888532
:1034D0008083CACF73FA442740F9F4016281738173
:1034E00084810E94FC18662463942CCFCF93DF93D1
:1034F000EC0168EB73E388810E94D3282885398525
:103500004C8160E0DF91CF910C947C19FF920F9376
:103510001F93CF93DF93EC01188168EB73E3812F46
:103520000E94D3280C81F884C9852F2D3C2F402F71
:1035300061E00E947C19CF93FF921F920F931F921C
:103540001F9381ED90E19F938F930E94D3318DB7AC
:103550009EB708960FB6F8949EBF0FBE8DBFDF9141
:10356000CF911F910F91FF900895CF93DF93EC01BE
:103570006A8D662309F453C0FC0150E031E020E07D
:10358000A38DB48D4C91958D942309F0532B2F5F0F
:10359000330F33962613F4CF2C85922F952729F0DD
:1035A0008D85852780959823D9F4888D5D8787FD43
:1035B00003C0815070F1888F4C815D816E817F8165
:1035C00088859985AA85BB85840F951FA61FB71F7F
:1035D0008C839D83AE83BF8381E0DF91CF9108957B
:1035E000982F909529238523822B8C879E85983050
:1035F000E0F621E0290F2E87FE01E90FF11D8787F4
:103600001092260281E0809348028FEF888F5D87B9
:10361000D3CF1092260291E090934802CCCF50E095
:10362000BBCFAF92BF92DF92EF92FF920F931F93A7
:10363000CF93DF93FC01A485B58596854785508996
:10364000E18822893389F488A588B6887789008D36
:10365000118DD28C808586279C9384FD20C085FDAA
:1036600022C086FD24C087FD26C09C93862F8295AC
:10367000807F808768279C9364FD2AC065FD25C0F4
:1036800066FD1CC067FD1EC09C93DF91CF911F910A
:103690000F91FF90EF90DF90BF90AF900895EA01F7
:1036A000E88285FFDECFE901F88286FFDCCFE50105
:1036B000788387FFDACFE801D882D7CFF50170830E
:1036C00067FFE2CFE801D882DFCFE901F882D8CFE7
:1036D000FA01E082D3CF0F931F93CF93DF938C0136
:1036E00067E97BE1DC018C910E94D328FC01D801C1
:1036F00014969C91828D9817B8F4292F30E0E90137
:10370000CC0FDD1F2C0F3D1FEF01C20FD31FF8019F
:10371000648580850E94C3186B8F7C8F8D8FDF91AD
:10372000CF911F910F91089584E20E945739CF9352
:10373000FC01C481C930B8F44C2F50E09A01220F2B
:10374000331F420F531F455E5F4F67E97BE1FC016A
:1037500080810E94A428FC01C28F25EB3AE13383CB
:103760002283CF91089585E20E9457395F926F922C
:103770007F928F929F92AF92BF92CF92DF92EF9201
:10378000FF920F931F93CF93DF938C01FC01C080B6
:10379000D180E280F38084809580A680B780662403
:1037A0006A94660E662301F1EA01712CFFEF6F1A2D
:1037B0007F0A640E751E59900E946D26DC01CB01B4
:1037C0008C199D09AE09BF0988159905AA05BB0585
:1037D00098F3652DC8010E94111B0E946D266B0194
:1037E0007C01C615D70539F7F801C082D182E28283
:1037F000F382DF91CF911F910F91FF90EF90DF90B7
:10380000CF90BF90AF909F908F907F906F905F9080
:1038100008950F931F93CF93DF93EC0161E47CE154
:1038200088810E94D3288C01FC0161857285838583
:1038300041E00E94FC18488559856C81C801DF91E0
:10384000CF911F910F910C94B61B0F931F93CF93A1
:10385000DF93EC0161E47CE188810E94D3288C0134
:10386000FC0161857285838540E00E94FC184885D3
:1038700059856C81C801DF91CF911F910F910C94F4
:10388000B61BCF92DF92EF92FF920F931F93CF93CD
:10389000DF93EC014BE150E061E47CE188810E9420
:1038A000A4288C0160E08C810E941B25F8016187AF
:1038B0007287838760E088850E941B25F8016487F2
:1038C0007587868760E08C850E941B25F8016787D5
:1038D000708B818B60E088890E941B25F801628BC8
:1038E000738B848B60E08C890E941B25F801658BAB
:1038F000768B878B60E0888D0E941B25F801608F96
:10390000718F828FF8940E946D266B017C0160E0BC
:10391000C8010E94111B0E946D267894DC01CB0126
:103920008C199D09AE09BF09CC8CDD8CEE8CFF8C07
:103930008C159D05AE05BF0548F4C81AD90AEA0AD8
:10394000FB0AF801C482D582E682F782DF91CF912B
:103950001F910F91FF90EF90DF90CF9008954F92BD
:103960005F926F927F928F929F92AF92BF92CF920F
:10397000DF92EF92FF920F931F93CF93DF938C010F
:10398000562E3A01FC0180809180A280B380C480D1
:10399000D580E680F780EA012196FA014080642D07
:1039A000607F0E94772F0E946D26DC01CB01881971
:1039B0009909AA09BB098C159D05AE05BF0598F3A9
:1039C000642D6295607FC8010E94772F0E946D264A
:1039D0006B017C01F80180849184A284B384F1E0BE
:1039E0005F1639F15A945A94852D90E00296680E2C
:1039F000791E5990652D607FC8010E94772F0E9423
:103A00006D26DC01CB018C199D09AE09BF09881513
:103A10009905AA05BB0598F3652D6295607FC801DD
:103A20000E94772F0E946D266B017C01C615D70579
:103A300001F7F801C082D182E282F382DF91CF9157
:103A40001F910F91FF90EF90DF90CF90BF90AF90BC
:103A50009F908F907F906F905F904F900895CF923E
:103A6000DF92EF92FF92CF93DF93FC01A085B185A7
:103A700082858C93968581E089278687C82FC170BF
:103A8000C688D788E08CF18C97859F5FD1899D1778
:103A900008F05FC0892F869586958695DF01A80F6F
:103AA000B11D5A962C9130E0892F877002C0359550
:103AB00027958A95E2F72170B701A601C217A9F0F0
:103AC00033C0892F869586958695DF01A80FB11D95
:103AD0005A962C9130E0892F877002C03595279532
:103AE0008A95E2F72170C2131FC04C0D5D1D6E1D3B
:103AF0007F1D9F5F9D1728F38AE290E29383828364
:103B000084819581A681B781480F591F6A1F7B1F49
:103B1000448355836683778381E0DF91CF91FF9063
:103B2000EF90DF90CF900895978784819581A6814B
:103B3000B781480F591F6A1F7B1F448355836683D3
:103B4000778381E0DF91CF91FF90EF90DF90CF906E
:103B50000895B701A601D0CFCF92DF92EF92FF92E6
:103B60000F931F93CF93DF93EC01E885F9858A8546
:103B700080830E946D263E8521E023272E872F8596
:103B80002F5F2F87213009F45CC02530E0F40C81D1
:103B90001D812E813F814A895B896C897D89DB018A
:103BA000CA01800F911FA21FB31F8C839D83AE8318
:103BB000BF8381E0DF91CF911F910F91FF90EF9034
:103BC000DF90CF900895CC80DD80EE80FF80AB0148
:103BD000BC014C195D096E097F098E899F89A88DEA
:103BE000B98D481B590B6A0B7B0BDB01CA0102968E
:103BF000A11DB11DB7FD34C0B595A79597958795C3
:103C0000B595A795979587950A891B892C893D8934
:103C1000800F911FA21FB31F8E8B9F8BA88FB98F10
:103C20002FE23DE13B832A834C0D5D1D6E1D7F1D00
:103C3000840F951FA61FB71F8C839D83AE83BF8300
:103C4000B8CF0C811D812E813F81AB01BC01401B8F
:103C5000510B620B730B4E8B5F8B688F798F9BCFF1
:103C6000DB01CA010596A11DB11DC6CFEF92FF92DF
:103C70000F931F93CF93DF937C0167ED7EE1FC01EF
:103C800080810E94D328EC011E8511FF07C0DF91BF
:103C9000CF911F910F91FF90EF900895F70104814C
:103CA00060857185F4840B3008F045C0FAE0FF159B
:103CB00008F441C0402F50E04A960E94B13A1F8656
:103CC000117312601E87802F880F880F880F898BD1
:103CD000FF0CFF0CFF0CF88A002349F08A8D8F73CC
:103CE0008A3229F48CEA9DE19B838A830CC08A89FD
:103CF0009B89AC89BD898E8B9F8BA88FB98F8FE2F2
:103D00009DE19B838A83F8940E946D26DC01CB01A0
:103D10008058934FAF4FBF4F8C839D83AE83BF833B
:103D2000CE010E9499357894DF91CF911F910F9128
:103D3000FF90EF90089586E20E9457390F931F93EA
:103D4000CF93DF938C0167E97BE1DC018C910E94CA
:103D5000D328EC01D8011496EC918F898E0F8F8BAC
:103D6000F8948E85E817D0F48E1BF0E03F96EC0FA8
:103D7000FD1FDE011F962FEF280F30E0205F3F4F21
:103D80002C0F3D1F91919D93A217B307D9F78E87F2
:103D90007894DF91CF911F910F9108951E868EEF39
:103DA000888F7894DF91CF911F910F9108957F9222
:103DB0008F929F92AF92BF92CF92DF92EF92FF923B
:103DC0000F931F93CF93DF93EC0144E250E067ED34
:103DD0007EE188810E94A4288C0178848C809D805B
:103DE000AE80BF80CC84DD84EE84FF8461E07110FE
:103DF00001C060E0882D0E94C318F80163877487B2
:103E0000858761E08C2D0E941B25F80160877187F2
:103E1000828788899989AA89BB89828B938BA48B95
:103E2000B58B711018C091E08C149D04AE04BF04D2
:103E3000C1F080E0892BF8018687DF91CF911F9137
:103E40000F91FF90EF90DF90CF90BF90AF909F9039
:103E50008F907F90089591E18C149D04AE04BF046F
:103E600041F780E2E7CF0F931F93CF93DF938C014D
:103E700067E97BE1FC0180810E94D328EC010E946C
:103E80004735F80184819581A681B7818C839D8314
:103E9000AE83BF8340855185628573854887598786
:103EA0006A877B8780898D878C871E861F8A8EEF25
:103EB000888F8485898F87FD10C0452B462B472B23
:103EC00029F4DF91CF911F910F910895CE01DF91D9
:103ED000CF911F910F910C94993583E20E9457392D
:103EE000CF93DF93EC018E8585FD0DC068857985C4
:103EF0008A8541E00E94FC188E85807381608E87E0
:103F0000DF91CF910895E885F9858A852FB7F894D8
:103F10009281982B92839181892B81832FBF8E85EB
:103F2000807381608E87DF91CF910895CF93DF9367
:103F3000FC01A385B4855C918785982F977021E05B
:103F400030E001C0220F9A95EAF7982F9695969542
:103F50009695DF01A90FB11D5A969C915A974585F8
:103F60004523E1F0292B5A962C938F5F908989176E
:103F7000E8F48787448155816681778186899789AE
:103F8000A08DB18D840F951FA61FB71F84839583C5
:103F9000A683B78381E0DF91CF91089520952923EF
:103FA0005A962C938F5F9089891718F3EF01CF01F0
:103FB0000E94701F8E8588608E871092260281E095
:103FC0008093490280E0DF91CF910895CF93DF93F2
:103FD000FC01A385B4859C9185858923E9F08685BC
:103FE00084608687878591E0980F9787803408F5ED
:103FF000448155816681778186899789A08DB18DAD
:10400000840F951FA61FB71F84839583A683B7834C
:1040100081E0DF91CF910895868582FFE3CF1786F7
:1040200086E99FE193838283CF01DF91CF910C9446
:10403000961FEF01108ACF010E94701F8E85886045
:104040008E871092260281E08093490280E0DF9102
:10405000CF9108950F931F93CF93FC01C089CC2378
:10406000E9F1868585FD23C0178686EE9FE193835F
:10407000828386899789A08DB18D880F991FAA1F89
:10408000BB1F880F991FAA1FBB1F448155816681E2
:104090007781840F951FA61FB71F84839583A683FE
:1040A000B783C1E08C2FCF911F910F910895A38505
:1040B000B48595852FB7F89484FF21C012968C9112
:1040C0001297892B909512968C93129711968C913A
:1040D0001197982311969C932FBFC6CF8C010E94F5
:1040E000701FF8018685886086871092260281E01D
:1040F000809349028C2FCF911F910F9108951296B2
:104100008C91129790958923DECF1F93CF93DF93E5
:10411000EC01162FAC89BD891097B9F01296ED917C
:10412000FC9113978D919C9111979D8B8C8B11967F
:104130001C921E9213961C921E921297612FCD0113
:104140001995AC89BD89109749F71092260281E034
:1041500080934A02DF91CF911F910895FC01389717
:10416000968990FF08C0608D678B9A7F9460968BCC
:10417000CF010E94852080E00895FC01868984603B
:10418000868B1092260281E080934A0244815581F9
:104190006681778180899189A289B389840F951F6F
:1041A000A61FB71F84839583A683B78381E00895F4
:1041B000FC01A085B1859C9182858923D1F0818DF8
:1041C00080958170C9F4838D815031F1838F448152
:1041D00055816681778187859089A189B289840F0D
:1041E000951FA61FB71F84839583A683B78381E09D
:1041F0000895818D817039F383E699E293838283F8
:1042000083899489A589B68984839583A683B78396
:10421000828D838F81E00895A789B08D56969C91F9
:104220005697892F817090FFE3CF648D57966C93DA
:1042300057979A7F946056969C935697CD010E940B
:10424000852080E00895FC0180917A0086FF0EC0F1
:1042500084819581A681B7818853984FAF4FBF4F16
:1042600084839583A683B78381E00895828D90919E
:104270000902981781F09F3F59F780930902982F00
:10428000987090937B008770806480937C0087EDAA
:1042900080937A00DDCF8FEF809309022091780020
:1042A00030917900858D968D891780F544895589DF
:1042B000240F351F8F5F358B248B858F891760F115
:1042C0008689978928173907C8F1808D918D8217C3
:1042D0009307A0F1138E1092260281E080934B0287
:1042E000408951896289738980859185A285B385CA
:1042F000840F951FA61FB71F808B918BA28BB38B4A
:1043000084839583A683B78381E0089581E0358B0C
:10431000248B858F8917A0F644815581668177812A
:1043200084859585A685B785840F951FA61FB71F21
:1043300084839583A683B78381E00895838D8F5FFF
:10434000838F948D891738F2809127028111C2CF13
:104350008AE10E945739EF92FF921F93CF93DF9328
:104360007C01FC01108162E272E2812F0E94D3285D
:10437000EC01F8948E8980FF09C0F70164816F8B8E
:104380008A7F84608E8BCE010E948520CE010E94A0
:104390004735CE0108960E9447351E8A8F8978944A
:1043A0001F921F921F921F921F928F931F921F9214
:1043B0001F921F938BED90E19F938F930E94D331B7
:1043C0008DB79EB70C960FB6F8949EBF0FBE8DBFEB
:1043D000DF91CF911F91FF90EF900895CF93FC0153
:1043E000C08168EB72E28C2F0E94D328FC01F89404
:1043F000818D33894489558966897894A085B185F2
:104400002C919285922321E009F420E01F922F93B2
:104410006F935F934F933F93869581701F928F9315
:104420001F92CF9380EE90E19F938F930E94D331A0
:104430008DB79EB70C960FB6F8949EBF0FBE8DBF7A
:10444000CF91089549E150E062E272E2FC0180817F
:104450000E94A4282DEB30E2FC01338322832EEA54
:1044600030E2338722870895EF92FF920F931F93D4
:10447000CF93DF938C0162E272E2FC0180810E94A3
:10448000D328EC01F8948E8980FF13C07E01F8E0F8
:10449000EF0EF11CC7010E944735F8018481958118
:1044A000A681B7818C879D87AE87BF87C7010E9491
:1044B00099357894DF91CF911F910F91FF90EF90F4
:1044C00008950F931F93CF93DF938C0168EB72E2F3
:1044D000FC0180810E94D328EC010E944735F8013D
:1044E00084819581A681B7818C839D83AE83BF83B0
:1044F00080859185A285B3858F87988BA98BBA8B90
:1045000084858A8F882361F1F80140895189628905
:1045100073894B875C876D877E8723E639E23B830F
:104520002A838B8F84899589A689B789892B8A2BC1
:104530008B2BA1F482E0898F62E272E2F801808D18
:104540000E94D328988F8F8BF801848D8C8FCE0199
:10455000DF91CF911F910F910C94993583E0EBCFB0
:10456000188E1F8A198EDF91CF911F910F91089598
:104570000F931F93CF93DF93EC014DE150E068EB75
:1045800072E288810E94A4288C0168858C810E9437
:10459000C318F801608771878287DF91CF911F91DF
:1045A0000F910895CF93DF93EC010E944735CE0120
:1045B00008960E944735EC89FD89309751F090812B
:1045C00081811382128211821082E92FF82F309795
:1045D000B1F71D8A1C8A188E1F8A1E8ADF91CF911F
:1045E00008950F931F93CF93DF938C0162E272E2E1
:1045F000FC0180810E94D328EC01F8940E94D22211
:1046000081E08E8BF80184819581A681B7818C83AE
:104610009D83AE83BF8380859185A285B385888B7A
:10462000998BAA8BBB8B892B8A2B8B2B19F0CE01F4
:104630000E949935F8018485888F7894DF91CF9115
:104640001F910F9108950F931F93CF93DF93FC0158
:10465000A189B2898D919C911197928B818B16962D
:104660008D919C911797C085D185228521113FC0DE
:104670002FB7F894AC015527598348832FBF209159
:104680004C0230914D0211963C932E93B0934D0203
:10469000A0934C02A189B289109759F527853089DA
:1046A0008217930741F083859485A585B685009789
:1046B000A105B10531F480E0DF91CF911F910F91F9
:1046C00008954481558166817781840F951FA61FC7
:1046D000B71F84839583A683B78388EA93E2938385
:1046E000828381E0DF91CF911F910F91089588839C
:1046F000C6CF12964D915D916D917C91159727854E
:1047000030898217930741F083859485A585B68506
:104710000097A105B10551F44483558366837783DF
:1047200081E0DF91CF911F910F9108950481158150
:1047300026813781800F911FA21FB31F2B2F841753
:104740009507A607270B27FFE7CF8FE10E94573970
:1047500080E20E9457392F923F924F925F926F9260
:104760007F928F929F92AF92BF92CF92DF92EF9201
:10477000FF920F931F93CF93DF9300D01F921F924E
:10478000CDB7DEB77C012DB73EB73D832C8363ECFC
:1047900074E1DC018C910E94D3289B838A83F7010A
:1047A000F481F983D70118966D907C9019971C9627
:1047B0008D919D910D90BC91A02D80FD6BC01C0131
:1047C0002D015694479437942794F701E088F18897
:1047D000C22CD12CF9810F2F10E0C8018C0D9D1D2A
:1047E0002DB73EB7281B390B0FB6F8943EBF0FBE4E
:1047F0002DBF8DB79EB701965C01A801B3010E9441
:10480000B13A4501800E911E8401222DA3016981D8
:10481000AA81BB818C910E94EE17C114D10499F03A
:10482000CE0CDF1CF4019601D7018D917D0180959E
:10483000908189238083D9019D919D01892B81934A
:10484000CE14DF0489F76981620DA501EA81FB813D
:1048500080810E947818EC81FD810FB6F894FEBF2C
:104860000FBEEDBF0F900F900F900F900F90DF9144
:10487000CF911F910F91FF90EF90DF90CF90BF905D
:10488000AF909F908F907F906F905F904F903F90F0
:104890002F9008958EE10E945739B0990FC08091F2
:1048A0004F0290915002019610920502109204025C
:1048B000909307028093060281E0089581E086BB11
:1048C00080914F02909150020196909350028093F4
:1048D0004F0220E030E830930502209304029093C9
:1048E00007028093060281E00895CF93DF93FC01D5
:1048F00084819581A681B7814489558966897789A4
:10490000C58DD68D3881C42FC170278D232331E00A
:1049100009F430E0C31761F04F5F5F4F6F4F7F4F77
:10492000448B558B668B778B808F918FA28FB38F43
:104930004089518962897389272F481759076A0767
:104940002B0B27FF18C0248D2160248F44855585AB
:1049500066857785840F951FA61FB71F808B918B67
:10496000A28BB38B1092260281E080934E02848149
:104970009581A681B7814085518562857385840FB5
:10498000951FA61FB71F84839583A683B78381E0F5
:10499000DF91CF9108950F931F93CF93DF938C01F5
:1049A0006DEF74E2FC0180810E94D328EC010E942B
:1049B0004735F80184819581A681B7818C839D83D9
:1049C000AE83BF834085518562857385488759874B
:1049D0006A877B8744855585668577854C875D87A3
:1049E0006E877F87888B998BAA8BBB8BCE01DF91DB
:1049F000CF911F910F910C9499350F931F93CF93E3
:104A0000DF93EC0140E250E06DEF74E288810E9498
:104A1000A4288C0168858C810E94C318F801658FD9
:104A2000768F878F85E794E293838283DF91CF919E
:104A30001F910F910895803678F5E82FE695E69559
:104A4000E695F0E0EE0FFF1FEA55F04FA591B49107
:104A5000109711F1877021E030E0A90102C0440FE6
:104A6000551F8A95E2F7CA013FB7F89412962C9128
:104A7000129761110FC04095242312962C93129720
:104A800011962C911197282B11962C9311973FBFBB
:104A9000BD010895242BF1CF8BE20E9457391F925C
:104AA0000F920FB60F9211240BB60F92EF92FF9256
:104AB0000F931F932F933F934F935F936F937F9326
:104AC0008F939F93AF93BF93CF93DF93EF93FF9316
:104AD0000DC07A0180918400909185008E199F0904
:104AE00097FD7CC07894B2999AC0F894C091220244
:104AF000D0912302EA81FB81309709F0ADC0EA8DA5
:104B0000FB8D2C8D20838E859F85019709F4C1C074
:104B10009F878E8788859985AA85BB854C815D8115
:104B20006E817F81480F591F6A1F7B1F4C835D83F5
:104B30006E837F8320832CA525FF0EC00C851D85E9
:104B4000012E000C220B330B800F911FA21FB31FED
:104B500088879987AA87BB87E881F98104811581B5
:104B600026813781872F401751076207830B87FD06
:104B7000B0CF7801F0932302E0932202A0912402A7
:104B8000B091250214960D911D912D913C9117978E
:104B9000872F401751076207830B87FFFD01DF0155
:104BA0000190F081E02D0481158126813781872FC6
:104BB000401751076207830B87FFF1CFF983E88322
:104BC000CD93DC93D0932502C0932402809184007E
:104BD000909185008E199F0997FF84CF863A9F4F49
:104BE0000CF06AC0F0928900E0928800FF91EF918A
:104BF000DF91CF91BF91AF919F918F917F916F91F5
:104C00005F914F913F912F911F910F91FF90EF90E6
:104C10000F900BBE0F900FBE0F901F901895F89439
:104C200080918400909185009701281B390B2038D2
:104C3000314CDCF12091260227FF43C09C01205C0F
:104C4000304E30938B0020938A0024E026BB909353
:104C50008900809388003ECFCE0119954C815D81FB
:104C60006E817F81811178CFE881F981E480F580C0
:104C7000F0932302E0932202809124029091250276
:104C8000C817D90709F026CFF0932502E093240234
:104C900021CFCE010E94F12CEA8DFB8D9C8D90835B
:104CA0004C815D816E817F81DDCF209127022111B2
:104CB000C1CF89E20E9457397894B299B0CFF89465
:104CC00009CF9C012854344F30938B0020938A00E5
:104CD00024E026BB7C01F39485CF2FB7F894609134
:104CE00084007091850080914F0290915002B0999C
:104CF00002C02FBF08952FBF7F3FE1F301960895B3
:104D000078940E9470372FEF260F6623C1F0FC01C4
:104D10008FEF9FEF31918327082E8295807F80252A
:104D2000092E982F82958F700826869598278927B7
:104D3000880F880F880F8025215060F708958FEF26
:104D40009FEF08950F931F93FC01A489B58986896D
:104D50008C9393A181E0892783A344815581668147
:104D6000778180FF12C00085118522853385400F31
:104D7000511F621F731F82FD12C0448355836683D7
:104D8000778381E01F910F9108950485158526850D
:104D90003785400F511F621F731F82FFEECF0089BE
:104DA000118922893389872F401751076207830BA6
:104DB00087FDE3CF86E097E293838283B901A80160
:104DC000448355836683778381E01F910F91089513
:104DD0000895FC018081A481B5814085518562855B
:104DE00073859FB7F894813061F0823019F04C934D
:104DF0009FBF08954D935D936D937C9313979FBFD1
:104E0000089511965C934E939FBF08958F929F9241
:104E1000AF92BF92CF92DF92EF92FF921F93CF9308
:104E2000DF93EC01EF8CF8A0E114F10409F4F0C079
:104E3000F7018081918198A38F8F86809780A084CD
:104E4000B18411E081149104A104B10409F4A1C05A
:104E50006C897D898E89412F0E94FC1880914C02BB
:104E600090914D02F70191838083F0924D02E09280
:104E70004C0281149104A104B104E9F08B8D9C8D46
:104E8000AD8DBE8D88169906AA06BB06A0F44F8983
:104E9000588D698D7A8D411551056105710509F4AB
:104EA0005BC08C819D81AE81BF81480F591F6A1FF5
:104EB0007B1F166022C08BA131E081149104A104F4
:104EC000B10409F068C084FB992790F921E092278A
:104ED000391709F443C04F89588D698D7A8D411572
:104EE000510561057105D1F18C819D81AE81BF8134
:104EF000480F591F6A1F7B1F1460EF8DF8A1309770
:104F000009F077C02BA1488B598B6A8B7B8B207162
:104F1000212B2BA311FF5FC0880D991DAA1DBB1D5E
:104F200012FD52C022EA36E23B832A838C839D83A2
:104F3000AE83BF8388869986AA86BB868B8D9C8D1F
:104F4000AD8DBE8D88199909AA09BB098C879D87EB
:104F5000AE87BF8781E011C012608BA1EF8DF8A1F1
:104F60003097D9F4188A198A1A8A1B8A8071812B82
:104F70008BA3812F827011FD34C0DF91CF911F91DF
:104F8000FF90EF90DF90CF90BF90AF909F908F9069
:104F9000089510E05DCF30E096CF42815381648167
:104FA0007581488B598B6A8B7B8B8071912F9460B4
:104FB000892B8BA311FF0FC08C819D81AE81BF8196
:104FC000880D991DAA1DBB1D2B2F84179507A607B9
:104FD000270B27FDA7CF4C835D836E837F8381E002
:104FE000CCCF40E050E0BA018C819D81AE81BF8181
:104FF00093CFC280D380E480F580872F4C155D0568
:105000006E058F0987FD07C08BA1B701A601C9CF27
:1050100085E10E94573983E10E945739FC0185815F
:105020008F9384818F9380811F928F938FEE90E175
:105030009F938F930E94D3310F900F900F900F90FA
:105040000F900F900895DC012C911496ED91FC9136
:1050500015973FB7F8942130E9F02230B1F0808104
:1050600090E0A0E0B0E03FBFBF93AF939F938F93DA
:105070008AEE90E19F938F930E94D3310F900F900F
:105080000F900F900F900F90089580819181A281D1
:10509000B381E9CF80819181A0E0B0E0E4CFCF92ED
:1050A000DF92EF92FF92FC01408151816281738116
:1050B0002481E2EAFFE085919591A591B49148178A
:1050C00059076A077B0770F56A017B01C20ED11C84
:1050D000E11CF11C8C159D05AE05BF0500F5841B78
:1050E00090E09A01215C3A4F3F932F939F938F93C7
:1050F0007F936F935F934F9388E091E19F938F939A
:105100000E94D3318DB79EB70A960FB6F8949EBF12
:105110000FBE8DBFFF90EF90DF90CF900895822F4C
:1051200090E0DFCF80E090E0DCCF80912702882301
:1051300029F0823011F010922702089582E00E9437
:1051400057398EE00E945739CF93DF939091370201
:10515000891730F5C82FD0E0CC0FDD1FCC0FDD1F35
:10516000E0913802F0913902EC0FFD1F80819181AE
:10517000892BB1F480913F0290914002892B81F4F8
:1051800071836083CA010E94B0312091380230914E
:105190003902C20FD31F9B838A83DF91CF91089579
:1051A0008BE00E94573990913702891788F4E0917B
:1051B0003802F091390294E0899FE00DF11D11242D
:1051C000808191818617970719F4828193810895D0
:1051D0008CE00E945739CF92DF92EF92FF92CF93EB
:1051E000DF93C0913F02D09140022097B9F12197FF
:1051F0006E01E12CF12CA0913E02B0E02097D9F095
:1052000020E030E040E050E0BA0180913C02909113
:105210003D02FC01E20FF31F4F5F5F4F6F4F7F4F67
:105220002A0F3B1F820F931F918380834C155D05CE
:105230006E057F0550F380913C0290913D02CA9F1C
:10524000F001CB9FF00DDA9FF00D1124E80FF91F4C
:105250001182108290934D0280934C02DF91CF9186
:10526000FF90EF90DF90CF900895FC01138212829F
:10527000118210826F3F710509F07CF480913F022A
:1052800090914002892B49F480913E0290E086176C
:10529000970714F460933E0208950E94A1282FB747
:1052A000F89480914C0290914D02009749F0FC01D6
:1052B0004081518150934D0240934C022FBF08957D
:1052C0008FE00E9457390F931F93FC01A085B18591
:1052D0009C9104811581268137814385548565859C
:1052E0007685400F511F621F731F8285892361F0ED
:1052F000818D8095817059F04483558366837783CF
:1053000081E01F910F910895818D8170A9F7438BE2
:10531000548B658B768B88ED90E293838283CF01EB
:105320001F910F910C94D820CF93DF93EC016BE980
:105330007CE288810E94D328FC018C819D81AE8112
:10534000BF81892B8A2B8B2B51F420E0F89494A5F4
:105350009D7F922B94A77894DF91CF91089522E0BE
:10536000F5CF0F931F93CF93DF938C01EC01A89798
:10537000CE010E9447351C821D821E821F821A8A1E
:105380001B8A1C8A1D8A88A199A1AAA1BBA12CA550
:105390004E855F856889798924FD04C07695679577
:1053A00057954795841B950BA60BB70BB7FD40C0CF
:1053B000B095A095909581959F4FAF4FBF4F88A313
:1053C00099A3AAA3BBA31E861F86188A198A2471D3
:1053D00028602CA76D8D7E8D8F8D40E00E94FC187B
:1053E0004CA544706A8D7B8D8C8D0E94FC18D80171
:1053F0001497ED91FC9111973097A9F040914C02D0
:1054000090914D0201C0F901208131814083918347
:10541000F0934D02E0934C024E2F9F2F2115310542
:1054200091F71D921C92DF91CF911F910F910895DA
:10543000B095A095909581959F4FAF4FBF4FB8CF36
:105440000F931F93CF93DF938C016BE97CE2FC01F8
:1054500080810E94D328EC0162E272E2F80184812B
:105460000E94D328BE01685D7F4F4FB7F8942AA5EC
:105470003BA5232B89F421EB39E23BA72AA7FC01AA
:105480002489358939A728A7758B648B4FBFDF9195
:10549000CF911F910F91089589E10E945739CF93C1
:1054A000DF93EC016BE97CE288810E94D328FC0148
:1054B0008C819D81AE81BF81F89446855785608936
:1054C0007189452B462B472B79F484839583A683DA
:1054D000B783828B938BA48BB58B84A5877F84A79E
:1054E0007894DF91CF91089586E10E945739CF9348
:1054F000FC01C0816BE97CE28C2F0E94D328FC0167
:10550000F89480A191A1A2A1B3A124A546855785B5
:105510006089718924FD04C07695679557954795F4
:10552000841B950BA60BB70BB7FF07C0B095A095D2
:10553000909581959F4FAF4FBF4F7894B054BF93D4
:10554000AF939F938F931F92CF9385EE90E19F939C
:105550008F930E94D3318DB79EB708960FB6F894FB
:105560009EBF0FBE8DBFCF910895CF92DF92EF9275
:10557000FF921F93CF93DF936A017B016EEB7FE075
:10558000FB019491981749F0675F7F4FF0E16E340B
:105590007F07B1F783E30E945739FB013896949156
:1055A00091FF1AC030EAC3163FE5D306E104F104C7
:1055B00008F483C0C0E8CC16CEE7DC06C1E0EC06F8
:1055C000F10408F090C0D0E4CD16DFEBDD06E10475
:1055D000F104C8F414E022C0F8EBCF16F7E4DF06BC
:1055E000E104F10490F0A0ECCA16AEE3DA06A1E003
:1055F000EA06F10408F475C0C114BBEFDB06B4E0A1
:10560000EB06F10438F315E009C037EFC31638E0B4
:10561000D306E104F10408F05FC011E0FB0133960A
:10562000A591B491FB013596C591D491FB013796B4
:105630003491E82FE695E695E695F0E0EE0FFF1F32
:10564000EA55F04F459154918770E1E0F0E07F0119
:1056500001C0EE0C8A95EAF7FB013196C590D49013
:10566000892F8170A038B10509F44BC0EFB7F894C9
:105670009881977011F0191341C0188381112EC0C1
:105680009FB7F894622F70E0E601798368839FBF2B
:105690009C913160392B3C93DA0111969C911197C2
:1056A000E92A1196EC92EFBFB601DF91CF911F91DD
:1056B000FF90EF90DF90CF900895A8EDCA16A7E273
:1056C000DA06E104F10468F4B7EFCB16B8E0DB06C4
:1056D000E104F10408F4A1CF12E0A0CFE601288391
:1056E000D7CF13E09BCFC114EBEFDE06E4E0EE066C
:1056F000F10410F416E092CF17E090CF81E30E94FE
:10570000573982E30E9457394F925F926F927F928E
:10571000BF92CF92DF92EF92FF920F931F93CF939E
:10572000DF93FC01B08069E57CE28B2D0E94D328D9
:10573000EC014D805E806F807884C984DA84EB84CC
:10574000FC840E946D26DC01CB0184199509A60911
:10575000B7098C159D05AE05BF0568F40E946D263E
:10576000DC01CB0184199509A609B7098C159D05A3
:10577000AE05BF0598F3CD84DE84688179818A8186
:10578000A0918400B09185000B811C819E01215F56
:105790003F4F7901C20ED31ECE14DF0409F457C067
:1057A000F70191917F0128E013C0F89440918400A3
:1057B00050918500FB01808380837894FA01EA1B75
:1057C000FB0BE017F107D8F4990FDA01215021F310
:1057D00097FFEBCFF8944091840050918500FB0136
:1057E00080837894FA01EA1BFB0BE017F10738F489
:1057F000990FF894FB0180837894DA01E7CF40E0B9
:105800000E94FC180E946D266D837E838F8398878B
:1058100080E01F928F931F92BF9285E990E19F9342
:105820008F930E94D3310F900F900F900F900F9095
:105830000F90DF91CF911F910F91FF90EF90DF902C
:10584000CF90BF907F906F905F904F9008950E948F
:105850006D266D837E838F83988781E0DACF0F93E7
:105860001F93CF93DF93EC0169E57CE288810E946E
:10587000D3280C811D812E813F8148856C857D85D3
:1058800017FD14C050E0DA01A00FB11FEC01ED8547
:10589000FE85EA17FB0750F0015F1F4F800F911F35
:1058A000DF91CF911F910F910C94B13A87E20E9442
:1058B00057396F927F928F92CF92DF92EF92FF9241
:1058C000CF93DF93EC0160E08C810E941B253B01AC
:1058D000882EC884D984EA84FB84D7FC24C0A6011E
:1058E000415F5F4F69E57CE288810E94A428FC014A
:1058F000608271828282D686C5868C859D859483DE
:10590000838388899989AA89BB8981879287A3879C
:10591000B487DF91CF91FF90EF90DF90CF908F9081
:105920007F906F90089588E20E945739FC0164814E
:1059300080810C941B250F931F93CF93DF938C01D1
:105940004DE250E06BE97CE2FC0180810E94A428DA
:10595000EC01F801848518160CF041C064E06CA7D6
:10596000F80184810E941B256A8F7B8F8C8F60E0F9
:10597000F80180850E941B256D8F7E8F8F8F80E0C0
:1059800090E0A0E0B0EC88A399A3AAA3BBA3F80180
:1059900080899189A289B3898E8B9F8BA88FB98FBB
:1059A0006BE070E0CE0184960E9435298E899F8934
:1059B000A88DB98D8997A105B10548F08EE29EE2C8
:1059C0009B838A83DF91CF911F910F9108958CA5BE
:1059D00080618CA7DF91CF911F910F91089560E0B6
:1059E000BECFCF92DF92EF92FF92CF93DF93FC0175
:1059F000A4A1B5A1109761F416861786108A118AA2
:105A000080E0DF91CF91FF90EF90DF90CF900895ED
:105A10008D919C91119795A384A316968D919C913D
:105A20001797958784871296CD90DD90ED90FC9026
:105A30001597AC01092E000C660B770B4C0D5D1D04
:105A40006E1D7F1D408751876287738724A524FDC3
:105A500043C04289538964897589C40ED51EE61EE8
:105A6000F71EC28AD38AE48AF58AC482D582E68286
:105A7000F78218968D919C911997AC0160E070E0C7
:105A8000440F551F661F771F46875787608B718BA2
:105A90001A962C911A9720FD3FC040A151A162A1F6
:105AA00073A1480F591F611D711D40A351A362A32B
:105AB00073A380914C0290914D0211969C938E930A
:105AC000B0934D02A0934C0281E0DF91CF91FF9003
:105AD000EF90DF90CF900895448155816681778162
